:020000040800F2
:1000000000500020D1110008211200081D02000834
:1000100023020008290200082F0200080000000047
:100020000000000000000000000000003502000891
:100030002112000800000000F503000889020008F2
:1000400021120008211200082112000821120008C4
:100050002112000821120008B10B0008D10B000882
:10006000F10B0008150C0008390C000821120008DB
:100070002112000821120008211200082112000894
:100080002112000821120008211200082112000884
:100090002112000821120008211200082112000874
:1000A0002112000821120008211200082112000864
:1000B000211200082112000821120008690C000812
:1000C0005D0C0008610D0008550D0008450E000884
:1000D00021120008A10E0008B50E00082112000828
:1000E000211200082112000800000000211200085F
:1000F0002112000821120008211200082112000814
:100100002112000821120008211200082112000803
:1001100021120008211200082112000821120008F3
:1001200021120008211200082112000821120008E3
:1001300010B5054C237833B9044B13B10448AFF321
:1001400000800123237010BD040000200000000087
:100150006C12000808B5034B1BB103490348AFF309
:10016000008008BD00000000080000206C1200089C
:1001700010F8012B11F8013B012A28BF9A42F7D051
:10018000D01A704780B483B000AF03463960FB716A
:1001900097F90730002B0ADB3B68DAB20C4997F974
:1001A00007305201D2B20B4483F800230AE03B68C7
:1001B000DAB20849FB7903F00F03043B5201D2B2D3
:1001C0000B441A7600BF0C37BD4680BC704700BF99
:1001D00000E100E000ED00E080B582B000AF7860A3
:1001E0007B68013BB3F1807F01D301230FE00A4A12
:1001F0007B68013B536007214FF0FF30FFF7C2FFE0
:10020000054B00229A60044B07221A60002318460F
:100210000837BD4680BD00BF10E000E080B400AFED
:10022000FEE780B400AFFEE780B400AFFEE780B425
:1002300000AFFEE71EF0040F0CBFEFF30880EFF3F2
:10024000098000F099BB00BF80B500AF0F216FF0AF
:100250000100FFF797FF00BF80BD000080B400AF32
:10026000044B5B68034A43F08053536000BFBD46B4
:1002700080BC704700ED00E080B500AF4FF4FA504D
:10028000FFF7AAFF00BF80BD80B500AF074B1B780A
:1002900083F00103DAB2054B1A7000F007FC00F09E
:1002A00019FBFFF7DBFF00BF80BD00BFD0000020BF
:1002B00080B485B000AFF860B9607A60BB68002B8D
:1002C00001D1032311E0FB68BA68DA60FB68DA68E1
:1002D000FB685A60FB68DA68FB689A60FB687A68BA
:1002E0001A61FB6800221A60002318461437BD46C5
:1002F00080BC704780B483B000AF786039607B68A1
:10030000DB68002B03D07B681B69002B01D1032322
:100310002DE07B685B687A681269934207D17B683D
:100320001A687B681B699A4201D101231FE07B6830
:100330009B683A681A607B681B685A1C7B681A6065
:100340007B689B687A68D26811467A681269920065
:100350000A44043A934204D17B68DA687B689A6065
:1003600004E07B689B681A1D7B689A60002318462E
:100370000C37BD4680BC704780B483B000AF786056
:1003800039607B68DB68002B03D07B681B69002B1E
:1003900001D1032328E07B685A687B689B689A42F6
:1003A00001D1022320E07B685B681A683B681A6011
:1003B0007B681B685A1E7B681A607B685B687A687A
:1003C000D26811467A68126992000A44043A93424C
:1003D00004D17B68DA687B685A6004E07B685B68FC
:1003E0001A1D7B685A60002318460C37BD4680BC36
:1003F000704700006F4BD3F8A031EFF3098002463D
:100400009A616C4BD3F8A0319A69043A9A61694BAE
:10041000D3F8A0319B6922461A60664BD3F8A0310D
:100420009A69043A9A61634BD3F8A0319B692A46D2
:100430001A60604BD3F8A0319A69043A9A615D4B17
:10044000D3F8A0319B6932461A605A4BD3F8A031D9
:100450009A69043A9A61574BD3F8A0319B693A469E
:100460001A60544BD3F8A0319A69043A9A61514BFF
:10047000D3F8A0319B6942461A604E4BD3F8A031A5
:100480009A69043A9A614B4BD3F8A0319B694A466A
:100490001A60484BD3F8A0319A69043A9A61454BE7
:1004A000D3F8A0319B6952461A60424BD3F8A03171
:1004B0009A69043A9A613F4BD3F8A0319B695A4636
:1004C0001A603C4BD3F8A431002B09D0394BD3F838
:1004D000A431384AC2F8A031364B0022C3F8A42117
:1004E000344BD3F8A0319B691B689B46314BD3F842
:1004F000A0319A6904329A612E4BD3F8A0319B69DE
:100500001B689A462B4BD3F8A0319A6904329A6142
:10051000284BD3F8A0319B691B689946254BD3F82B
:10052000A0319A6904329A61224BD3F8A0319B69B9
:100530001B6898461F4BD3F8A0319A6904329A6120
:100540001C4BD3F8A0319B691B681F46194BD3F88D
:10055000A0319A6904329A61164BD3F8A0319B6995
:100560001B681E46134BD3F8A0319A6904329A6176
:10057000104BD3F8A0319B691B681D460D4BD3F877
:10058000A0319A6904329A610A4BD3F8A0319B6971
:100590001B681C46074BD3F8A0319A6904329A6154
:1005A000044BD3F8A0319B69184680F30988704743
:1005B00000BF00BFE800002080B400AF044B1B78F0
:1005C00083F00103DAB2024B1A7020BFF6E700BFD6
:1005D000D802002080B400AF0B4A0C4BC3F8902126
:1005E0000A4BD3F89031A3F54063084AC2F894311E
:1005F000064BD3F89431083B044AC2F8983100BF47
:10060000BD4680BC704700BF00500020E8000020BD
:1006100080B582B000AF0023FB71164B002283F837
:10062000A821FFF7D7FF642213491448FFF740FEC3
:100630000346002B02D0FB790133FB71104B114AAA
:1006400007CA03C31A70104BFF221A710E4B0F4AD0
:100650009A600D4B4FF496721A600B4800F056F8F2
:1006600003461A46FB791344FB71FB791846083799
:10067000BD4680BDE8000020DC020020D400002040
:10068000B00200208412000894020020B90500087E
:1006900080B485B000AF78607B681B691A467B68C0
:1006A0009A617B689B691A1F7B689A617B689B696A
:1006B0004FF080721A607B689B691A1F7B689A6191
:1006C0007B689A687B689B691A607B689B691A1FC4
:1006D0007B689A617B689B696FF002021A60002355
:1006E000FB600BE07B689B691A1F7B689A617B68E3
:1006F0009B6900221A60FB680133FB60FB680C2BCE
:10070000F0DD00BF1437BD4680BC704780B584B0B3
:1007100000AF78600023FB73154BD3F898217B68FA
:100720001A617B681A697B681B68D21A7B685A61F8
:100730007B685B69083B0E4AC2F898317868FFF71E
:10074000A7FF0B4BD3F89C3109497A6841F8232065
:10075000074BD3F89C310133054AC2F89C317B68C2
:10076000002283F83A20FB7B18461037BD4680BD37
:10077000E800002080B485B000AF214BD3F89C3155
:100780007B600023FB6030E00023BB6023E01C4A59
:10079000BB6852F823301A79BB680133184951F805
:1007A00023301B799A4213D9154ABB6852F823307B
:1007B0003B60BB680133124A52F823201049BB68E2
:1007C00041F82320BB6801330D493A6841F82320E2
:1007D000BB680133BB607A68FB68D31A013BBA6817
:1007E0009A42D4D3FB680133FB607B68013BFA6813
:1007F0009A42C9D300BF1437BD4680BC704700BFC2
:10080000E800002080B584B000AF00233B600023E7
:10081000FB60FFF7AFFF00BF3B4619462B48FFF7D1
:10082000ABFD0346022BF7D144E0294AFB6852F89E
:100830002330BB60FB680133254A52F823307B60CC
:10084000BB6893F83A30002B31D07B6893F83A308C
:10085000002B08D1B9681D48FFF74CFDBB68032287
:1008600083F83A202EE0BB681A797B681B799A429C
:1008700008D2B9681548FFF73DFDBB68032283F82D
:100880003A201FE0BB681A797B681B799A4208D12D
:10089000B9680E48FFF72EFDBB68032283F83A20A3
:1008A00005E0BB681A797B681B799A4209D8FB6816
:1008B0000133FB60064BD3F89C21FB689A42B4D805
:1008C00000E000BF00BF1037BD4680BDD40000204F
:1008D000E800002080B500AF244B1B68002B1AD124
:1008E000234BD3F8A03193F83A30002B13D0204B90
:1008F000D3F8A031012283F83A201D4BD3F8A03160
:1009000019461A48FFF7F6FC194BD3F8A031184ADC
:10091000C2F8A43127E017491448FFF72DFD144B06
:10092000D3F8A431012283F83A20114BD3F8A03137
:100930001A790F4BD3F8A4311B799A4213D10C4B7F
:10094000D3F8A03193F83A30002B0CD0084BD3F8F1
:10095000A03119460548FFF7CDFC054BD3F8A0316F
:10096000032283F83A2000BF80BD00BFD4000020DE
:10097000E80000208C02002080B584B000AF7860D1
:100980007B6818331B68023B1B78FB73FB7B002BD7
:100990001FDB012B02DD022B17D01AE0FFF732FF1D
:1009A0000E4B93F8A831012B12D10C4BD3F8A03188
:1009B0001C330B491846FFF7DBFB0346002B07D01F
:1009C000FFF788FFFFF74AFC02E0FFF71BFF00E09C
:1009D00000BF00BF1037BD4680BD00BFE80000204B
:1009E0008412000880B483B000AF0346FB71FB792A
:1009F000012B06D0022B06D0002B00D005E000DF33
:100A000003E001DF01E002DF00BF00BF0C37BD469D
:100A100080BC704780B582B000AF78607B680222EE
:100A200083F83A200020FFF7DDFF00BF0837BD46FE
:100A300080BD80B582B000AF78607B68002283F80B
:100A40003A200120FFF7CEFF00BF0837BD4680BD2A
:100A500080B500AF134B012283F8A821114B124A35
:100A6000C3F8A0211048FFF7D5FFFFF705FC0D4B99
:100A7000D3F8A0319B69184680F30988EFF31480FE
:100A80004FF0020140EA010080F31488EFF3148371
:100A900043F0010383F31488034B9B68984700BF1E
:100AA00080BD00BFE80000209402002080B582B025
:100AB00000AF00237B6031E01D4A7B6852F8233091
:100AC00093F83A30002B26D1194A7B6852F823302C
:100AD00093F83C30002B1ED1154A7B6852F8233026
:100AE0001A6C013A1A64124A7B6852F823301B6C64
:100AF000002B10D10E4A7B6852F82330012283F874
:100B00003C200B4A7B6852F82330022283F83A20BB
:100B10000220FFF767FF7B6801337B60044BD3F84B
:100B20009C217B689A42C7D800BF0837BD4680BD6C
:100B3000E800002080B582B000AF786039607B6843
:100B40009B68002B03D17B683A689A6010E07B6851
:100B5000DB68002B0AD17B683A68DA603B680022C8
:100B600083F83A200220FFF73DFF01E0032300E075
:100B7000002318460837BD4680BD80B582B000AF5F
:100B800078607B689B68002B0ED07B68DA687B6896
:100B90009A607B680022DA607B689B68022283F897
:100BA0003A200020FFF71EFF00BF0837BD4680BD7A
:100BB00080B500AF044B044A5B695361034B1B686B
:100BC000984700BF80BD00BF000401402000002006
:100BD00080B500AF044B044A5B695361034B5B680B
:100BE000984700BF80BD00BF0004014020000020E6
:100BF00080B500AF054B5B69044A43F001035361C4
:100C0000034B9B68984700BF80BD00BF00040140B4
:100C10002000002080B500AF054B5B69044A43F01B
:100C200001035361034BDB68984700BF80BD00BFE1
:100C3000000401402000002080B500AF054B5B6937
:100C4000044A43F001035361034B1B69984700BFFB
:100C500080BD00BF000401402000002080B400AF30
:100C600000BFBD4680BC704780B586B000AF002392
:100C70007B60374B7B617B695B6803F400733B618E
:100C80007B695B6803F48063FB607B695B6803F0EE
:100C900010033B613B69002B0AD0BB68002B07D0D7
:100CA0007B691A687B691A600021786900F05EF838
:100CB0007B695B6903F00203BB603B69002B12D0C8
:100CC000BB68002B0FD07B699B6903F00103002BED
:100CD00009D17B695B697B607B699B697B600121D2
:100CE000786900F043F87B695B6903F08003BB60BF
:100CF0003B69002B0FD0FB68002B0CD0BB68002B8E
:100D000009D07B699B6903F00103002B03D1022109
:100D1000786900F02BF87B695B6903F04003BB60E6
:100D20003B69002B0FD0FB68002B0CD0BB68002B5D
:100D300009D07B699B6903F00103002B03D10321D8
:100D4000786900F013F800BF1837BD4680BD00BFBA
:100D50000054004080B400AF00BFBD4680BC704767
:100D600080B400AF00BFBD4680BC704780B584B082
:100D700000AF78600B46FB707B68304A934214BF2B
:100D800001230023DBB2FB73FB78042B52D801A2B2
:100D900052F823F0AF0D0008D10D0008E70D000850
:100DA000090E0008A90D00087B689B6942E07B687A
:100DB0009B6903F00403002B37D0FB7B204A2C21D6
:100DC00001FB03F3134428331B68002098472CE0F1
:100DD000FB7B1B4A2C2101FB03F3134428331B68C4
:100DE0000120984726E07B689B6903F00403002BF1
:100DF0001DD0FB7B124A2C2101FB03F31344283343
:100E00001B680220984712E07B689B6903F004038B
:100E1000002B0ED1FB7B0A4A2C2101FB03F3134468
:100E200028331B680320984703E000BF02E000BF9F
:100E300000E000BF00BF1037BD4680BD0054004039
:100E40005C00002080B582B000AF134B9B685B084C
:100E500003F00103DAB23B7962F300033B710E4BFE
:100E60009B6803F00103DAB23B7962F341033B7103
:100E7000094B9B681B0903F00103DAB23B7962F36B
:100E800082033B71054B1B685B693879984700BF4B
:100E90000837BD4680BD00BF00300140B4000020CF
:100EA00080B500AF024B1B681B69984700BF80BD2F
:100EB000BC00002080B500AF024B1B681B6998473F
:100EC00000BF80BDBC00002080B500AF124B1B7876
:100ED00083F00103DAB2104B1A70104B1B68013318
:100EE0000E4A13600D4B1B68642B0AD10C490D4848
:100EF000FFF720FE0C48FFF78DFD09490B48FFF76F
:100F000019FE064B1B68C82BE0D1044B00221A6067
:100F10000448FFF732FED9E79C050020C0000020FE
:100F2000E00400206C0400209C0400206C050020DC
:100F300080B500AF0E4B1B7883F00103DAB20C4B87
:100F40001A700C4B1B6801330A4A1360094B1B686B
:100F5000642B02D10848FFF75DFD064B1B68C82BC8
:100F6000E8D1044B00221A600448FFF762FDE1E774
:100F700025050020C400002028050020A005002031
:100F800080B500AF0E4B1B7883F00103DAB20C4B37
:100F90001A700C4B1B6801330A4A1360094B1B681B
:100FA000642B02D10848FFF735FD064B1B68C82BA0
:100FB000E8D1044B00221A600448FFF73AFDE1E74C
:100FC000E4050020C80000209C0400202805002023
:100FD00080B500AF124B1B7883F00103DAB2104BDF
:100FE0001A70104B1B6801330E4A13600D4B1B68BF
:100FF000032B07D10C490D48FFF79CFD0A490C480B
:10100000FFF798FD074B1B68C82BE3D1054B002267
:101010001A600748FFF7B1FD0348FFF70AFDD9E75B
:1010200024050020CC0000209C0400206C0500203A
:101030006C040020B0B582B000AF0023FB71FFF755
:1010400003F9FFF7E5FA0346002B00D0FEE7494B12
:1010500003225A60474B484A1A60484A484B144694
:101060001D460FCD0FC42B682360464B03225A60E8
:10107000444B414A1A60444A444B14461D460FCD26
:101080000FC42B682360424B4FF480621A60404BC0
:10109000404A9A603E4B04221A713F4B3F4A92E805
:1010A000030018600433198002330A0C1A703C4B99
:1010B0004FF480621A603A4B3A4A9A60384B0322E6
:1010C0001A71394B394A92E80300186004331980C9
:1010D00002330A0C1A70364B4FF480621A60344B9C
:1010E000344A9A60324B02221A71334B334A92E8E7
:1010F000030018600433198002330A0C1A70304B55
:101100004FF480621A602E4B2E4A9A602C4B0122BB
:101110001A712D4B2D4A92E8030018600433198090
:1011200002330A0C1A701A48FFF7F0FA03461A46FF
:10113000FB791344FB711A48FFF7E8FA03461A4695
:10114000FB791344FB711A48FFF7E0FA03461A468D
:10115000FB791344FB711A48FFF7D8FA03461A4685
:10116000FB791344FB710A48FFF754FCFFF770FC4E
:10117000FEE700BF6C040020000000207C0400207B
:10118000901200086C0500207C050020A4120008C5
:10119000E0040020C90E0008FC040020B81200087A
:1011A000A0050020310F0008BC050020C012000877
:1011B00028050020810F000844050020C8120008FF
:1011C0009C040020D10F0008B8040020D0120008B1
:1011D0000D488546AFF300800C480D490D4A0023A9
:1011E00002E0D458C4500433C4188C42F9D30A4ADC
:1011F0000A4C002301E013600432A242FBD300F04A
:1012000011F8FFF717FFFEE7005000200000002054
:1012100004000020E012000804000020E80500207F
:10122000FEE7000070B500250C4E0D4CA41BA41069
:10123000A54209D100F01AF800250A4E0A4CA41B59
:10124000A410A54205D170BD56F825309847013548
:10125000EEE756F8253098470135F2E7D812000836
:10126000D8120008D8120008DC120008F8B500BF38
:10127000F8BC08BC9E467047F8B500BFF8BC08BC77
:041280009E467047CF
:1012840069646C655461736B000000006D7574656E
:1012940078315F7368617265645F54315F54340000
:1012A4006D75746578325F7368617265645F54311B
:1012B4005F5434007461736B5F3100007461736B4D
:1012C4005F3200007461736B5F3300007461736B91
:0412D4005F34000083
:0412D80055010008B4
:0412DC0031010008D4
:0412E0000102030004
:04000005080011D10D
:00000001FF
